:100000000C9408060C9425060C9425060C942506E1
:100010000C9425060C9425060C9425060C942506B4
:100020000C9425060C9425060C949A210C945621C8
:100030000C94ED220C9425060C9425060C942506B0
:100040000C9425060C9425060C9425060C94250684
:100050000C9425060C94C9220C9425060C942506B4
:100060000C9425060C9425060C9425060C94250664
:100070000C9425060C9425060C9425060C94250654
:100080000C9425060C9425060C9425060C94250644
:100090000C9425060C9425060C9425060C94250634
:1000A0000C9425060C9425060C9425060631FF09B0
:1000B00074A1010975150026FF00952075088102BD
:1000C0000976150026FF00952075089102C00501EC
:1000D0000902A10185020901A100050919012908E8
:1000E00015002501950875018102050109300931C6
:1000F0001581257F95027508810609381581257FB0
:10010000950175088106050C0A38021581257F9531
:100110000175088106C0C005010980A10185031988
:10012000012AB700150126B700950175108100C09E
:10013000050C0901A101850419012AA00215012657
:10014000A002950175108100C005010906A1018575
:1001500006050719E029E7150025019508750181B5
:10016000020507190029EF1500250195F075018199
:10017000020508190129059505750191029501757A
:10018000039101C00660FF0961A101096215002603
:10019000FF009520750881020963150026FF009570
:1001A0002075089102C005010906A101050719E0A3
:1001B00029E715002501950875018102950175084B
:1001C00081010507190029FF150026FF0095067516
:1001D0000881000508190129059505750191029509
:1001E0000175039101C00000000000000000000044
:1001F00000000000000000000000000000000000FF
:10020000000000000000000000007E0F00D4FFFF8F
:10021000FFC70000007800000000000000002A2B4B
:1002200028000000000000000000000000000000A6
:100230000029000000002C1E34202122243426270F
:10024000252E362D3738271E1F2021222324252630
:100250003333362E37381F0405060708090A0B0CFE
:100260000D0E0F101112131415161718191A1B1C46
:100270001D2F3130232D350405060708090A0B0C04
:100280000D0E0F101112131415161718191A1B1C26
:100290001D2F3130354C44454255473A206469732F
:1002A00061626C65642E0A0044454255473A2065F8
:1002B0006E61626C65642E0A003F00433E2000615F
:1002C00064645F6B65795F6269743A2063616E276D
:1002D00074206164643A20253032580A0064656CE9
:1002E0005F6B65795F6269743A2063616E27742081
:1002F00064656C3A20253032580A004F6E65736889
:100300006F743A206163746976653A2025640A0047
:100310000A002530325820006B6579626F61726483
:100320005F7265706F72743A20005B735D000A0043
:100330002530313662003A200025303258000A72EA
:100340002F63203031323334353637383941424328
:100350004445460A000A0025303258006C65645F47
:100360007461736B3A2000290A002575002F00255F
:1003700075005D280025640020002564002000250C
:10038000640020002564007C0025303258006D6F29
:100390007573656B6579205B62746E7C782079205B
:1003A0007620685D287265702F61636C293A205B46
:1003B000006B65796D61705F636F6E6669672E7241
:1003C00061773A20253032580A2E737761705F6367
:1003D0006F6E74726F6C5F636170736C6F636B3A96
:1003E0002025750A2E636170736C6F636B5F746F89
:1003F0005F636F6E74726F6C3A2025750A2E737787
:1004000061705F6C63746C5F6C6775693A20257509
:100410000A2E737761705F7263746C5F72677569BF
:100420003A2025750A2E737761705F6C616C745F7A
:100430006C6775693A2025750A2E737761705F7253
:10044000616C745F726775693A2025750A2E6E6F4C
:100450005F6775693A2025750A2E737761705F674B
:10046000726176655F6573633A2025750A2E73772E
:1004700061705F6261636B736C6173685F6261631B
:100480006B73706163653A2025750A2E6E6B726F0F
:100490003A2025750A2E737761705F65736361700A
:1004A000655F636170736C6F636B3A2025750A003A
:1004B00064656275675F636F6E6669672E726177E8
:1004C0003A20253032580A2E656E61626C653A20FA
:1004D00025750A2E6D61747269783A2025750A2E89
:1004E0006B6579626F6172643A2025750A2E6D6FB3
:1004F0007573653A2025750A006565636F6E6669D8
:10050000673A0A64656661756C745F6C61796572DF
:100510003A2025750A000A092D204D61676963207C
:100520002D0A443A094465627567204D657373610D
:10053000676520546F67676C650A583A094D6174A6
:10054000726978204465627567204D6F6465205438
:100550006F67676C65202D2053686F77206B657916
:100560007072657373657320696E206D6174726952
:100570007820677269640A4B3A094B6579626F614A
:10058000726420446562756720546F67676C6520EC
:100590002D2053686F77206B6579707265737320B7
:1005A0007265706F72740A4D3A094465627567200E
:1005B0004D6F75736520546F67676C650A563A090D
:1005C00056657273696F6E0A533A09537461747594
:1005D000730A433A09416374697661746520436F15
:1005E0006E736F6C65204D6F64650A46312D463120
:1005F000303A0953776974636820746F204C6179CD
:10060000657220302D392028463130203D204C3075
:10061000290A302D393A0953776974636820746F59
:10062000204C6179657220302D390A475241564578
:100630003A0953776974636820746F204C61796557
:100640007220302028616C7465726E617465290AAD
:10065000423A094A756D7020746F20426F6F746C56
:100660006F616465720A4553433A094A756D70209B
:10067000746F20426F6F746C6F61646572202861C3
:100680006C7465726E617465290A453A0950726925
:100690006E7420454550524F4D2053657474696EF9
:1006A00067730A4241434B53504143453A09436CF7
:1006B00065617220454550524F4D0A4E3A094E4BE6
:1006C000524F20546F67676C650A000A092D20435A
:1006D0006F6E736F6C65202D0A4553432F713A0975
:1006E000717569740A6D3A096D6F7573656B65791B
:1006F0000A002573000A092D205374617475732054
:100700002D0A686F73745F6B6579626F6172645FE5
:100710006C65647328293A20253032580A6B657954
:10072000626F6172645F70726F746F636F6C3A2096
:10073000253032580A6B6579626F6172645F696453
:100740006C653A20253032580A6B65796D61705FAF
:10075000636F6E6669672E6E6B726F3A202530325A
:10076000580A74696D65725F726561643332282955
:100770003A202530386C580A003F004E4B524F3A11
:10078000206F66660A004E4B524F3A206F6E0A0089
:100790000A6D6F7573653A206F66660A000A6D6FA1
:1007A0007573653A206F6E0A000A6B6579626F6136
:1007B00072643A206F66660A000A6B6579626F613F
:1007C00072643A206F6E0A000A6D61747269783A39
:1007D000206F66660A000A6D61747269783A206F4C
:1007E0006E0A000A64656275673A206F66660A00E1
:1007F0000A64656275673A206F6E0A000A0A4A75D4
:100800006D70696E6720746F20626F6F746C6F61BA
:100810006465722E2E2E2000433E2000436C6561DD
:1008200072696E6720454550524F4D0A00313A09B2
:1008300064656C6179282A31306D73293A202575F9
:100840000A323A09696E74657276616C286D732993
:100850003A2025750A333A096D61785F73706565D2
:10086000643A2025750A343A0974696D655F746FBE
:100870005F6D61783A2025750A353A0977686565B4
:100880006C5F6D61785F73706565643A2025750AE9
:10089000363A09776865656C5F74696D655F746F7A
:1008A0005F6D61783A2025750A00703A09707269A7
:1008B0006E742076616C7565730A643A09736574A9
:1008C0002064656661756C74730A75703A092B3122
:1008D0000A646E3A092D310A6C743A092B31300AD8
:1008E00072743A092D31300A4553432F713A097118
:1008F0007569740A0A7370656564203D2064656CCF
:100900007461202A206D61785F7370656564202AA8
:100910002028726570656174202F2074696D655F91
:10092000746F5F6D6178290A776865726520646508
:100930006C74613A20637572736F723D25642C206C
:10094000776865656C3D25640A5365652068747435
:10095000703A2F2F656E2E77696B697065646961D7
:100960002E6F72672F77696B692F4D6F7573655F97
:100970006B6579730A004D3E20004D25753A25734D
:100980003E20003F0A003D2025750A003F0A006412
:10099000656661756C74730A0025750A003F0A006C
:1009A0000A092D2056616C756573202D0A00710AA5
:1009B000000A092D204D6F7573656B6579202D0A2E
:1009C000004C25640A00290014001A0008001500D4
:1009D00017001C0018000C00120013002A002B0046
:1009E00004001600070009000A000B000D000E00AD
:1009F0000F0000002800E10000001D001B000600A1
:100A000019000500110010003700E5002352E00036
:100A1000E300E2000000000000002C0000000000E5
:100A20000000225221523A003B003C003D003E00B3
:100A30003F004000410042004300440045001E00CA
:100A40001F00200021002200230024002500260092
:100A500027000000280046000000AE00AA00A90000
:100A600049004C003600370038004B002052E000AF
:100A7000E300E2000000000000002C000000000085
:100A800000004E004A0029001E001F002000150033
:100A900017001C0018000C001200130049002B0066
:100AA00004001600070009000A000B000D000E00EC
:100AB000520000004C00E10000001D001B00060079
:100AC000190005001100500051004F002052E000B5
:100AD000E300E2000000000000002C000000000025
:100AE00000004A000100007C01000100010001003B
:100AF00001000100010001002D002E00010039005D
:100B000001000100010001000100010001002F00AF
:100B10003000000031000100000001000100010070
:100B200001000100330034003800E500010001003D
:100B300001000100000000000000010000000000B2
:100B40000000010001005B435D005B445D005B53FE
:100B50005D005B575D005B525D0009027B00040194
:100B600000A0FA090400000103010100092111019C
:100B7000000122400007058103080001090401006B
:100B800002030000000921110100012222000705D3
:100B9000820320000107050303200001090402006D
:100BA000010300000009211101000122B600070520
:100BB000840320000109040300020300000009214E
:100BC000110100012222000705850320000107050D
:100BD00005032000011201000200000008326569CF
:100BE00000010001020001160370006F006C006C30
:100BF0000079003400300020007600320000000A46
:100C0000037000610075006C00000004030904001B
:100C100011241FBECFEFDAE0DEBFCDBF12E0A0E0AF
:100C2000B1E0E2EAF1E502C005900D92AC38B107FF
:100C3000D9F723E0ACE8B2E001C01D92A339B207B6
:100C4000E1F70E9414230C943E280C940000FF93BB
:100C5000EF93E0918C02F0918D02309709F00995A5
:100C6000EF91FF910895FC018591803011F0EFDF45
:100C7000FBCF0895FF27E0E230E247FF0CC041952B
:100C800097FF09C0EDE26095709580959095611D84
:100C9000711D811D911D27FF02C0219530E350E297
:100CA000AA27660F771F881F991FAA1FA41710F085
:100CB000A41B63955A95A9F7AA3008F0A95FA05D17
:100CC000AF93F395611571058105910541F7ED32FB
:100CD00011F4EF93F395F21718F43F93F395FBCFCC
:100CE0008F91B5DFFA95E1F70895E991F991859132
:100CF000803021F0853219F0AADFF9CF089520E085
:100D0000E89455915532C1F3503311F468945591DC
:100D10005A3348F4505390F3220F022E220F220F21
:100D2000200D250FF4CF0EF421958991999153361A
:100D300019F3533729F1533559F1BC018827992705
:100D4000E8945C3621F489919991689455915436D0
:100D500039F446EF7EF077FF0DC08FEF9FEF0AC0AA
:100D600055374AE039F0583540E121F0523642E03B
:100D700009F00895FF93EF937DDFEF91FF91B7CFD7
:100D8000FF93EF93FC0181918030B9F360DFFBCFDB
:100D9000FF93EF9368DFF1CFDF93CF93CDB7DEB74B
:100DA0002596A3DFCF91DF910895E8EDF0E08081F3
:100DB0008E7F80831092E2001092DA001092E100A0
:100DC000A0EEB0E08C9181608C9380818F778083DE
:100DD00019BCA7EDB0E08C918E7F8C9380818F7EC3
:100DE00080831092600308952091E4003091E50023
:100DF00095E6A9012091EC00822F817020FF06C0AA
:100E00008091E80080FF06C080E008952091E8000E
:100E100022FD1AC080918503882389F0853089F0EE
:100E20008091EB0085FD0FC02091E4003091E5003A
:100E300042175307F9F29150E1F684E0089582E0F9
:100E4000089583E0089581E008958091870387FFE6
:100E500013C08091E80082FF06C08091E8008B7784
:100E60008093E80004C0809185038111F2CF08953A
:100E7000809185038823D9F38091E80080FFF8CF23
:100E80008091E8008E77ECCF982F9093E900242F83
:100E9000762F50E0891731F07091EC002091ED0031
:100EA0005091F00021FD07C09F5F973071F780934C
:100EB000E90081E008953091EB003E7F3093EB0034
:100EC0003091ED003D7F3093ED003091EB003160CB
:100ED0003093EB007093EC002093ED005093F00002
:100EE0002091EE0027FDE0CF80E00895B0E0A0E083
:100EF000ECE7F7E00C94AE27C8EDD0E088818F7E58
:100F00008883E7EDF0E080818160808384E082BFA8
:100F100081E08093600388818E7F888302EE10E0F9
:100F2000F80110821092DA0081EEC82ED12CF60161
:100F3000108288818F778883888180688883888100
:100F40008F7D888319BC10928503109286031092BE
:100F500084031092830390EEE92EF12CF701808137
:100F60008B7F808388818160888342E060E080E0BD
:100F70000E944407F60180818E7F8083F801808182
:100F800081608083808188608083F70180818E7F8B
:100F90008083888180618883CDB7DEB7E8E00C94D8
:100FA000CA27FC0180918D0390918E0386179707C5
:100FB000A0F06115710529F49091E8009E77909357
:100FC000E80090E06115710551F4911108C080911D
:100FD000E80082FF34C080E00895BC01F2CF809128
:100FE00085038823C1F18530C1F18091E80083FD3C
:100FF00030C08091E80082FDEACF8091E80080FF58
:10100000E1CF8091F3002091F200382F6115710536
:1010100019F02830310558F091E02830310509F0F9
:1010200090E02091E8002E772093E800CBCF8191CB
:101030008093F100615071092F5F3F4FE7CF80919E
:101040008503882341F0853041F08091E80083FFDB
:10105000BECF81E0089582E0089583E008958091F5
:10106000620308959C014FB7F894809157039091C3
:101070005803A0915903B0915A034FBF821B930BA1
:1010800008952FB7F8946091570370915803809199
:10109000590390915A032FBF08952FB7F894809168
:1010A000570390915803A0915903B0915A032FBF51
:1010B0000895A3E0B0E0EFE5F8E00C94B4272091A8
:1010C00054033091550328173907A1F09093550325
:1010D00080935403E0915203F0915303309751F001
:1010E00024E029839B838A830680F781E02DCE014B
:1010F000019609952396E2E00C94D027A3E0B0E096
:10110000E4E8F8E00C94B4272091500330915103A7
:1011100028173907A1F09093510380935003E09171
:101120005203F0915303309751F023E029839B83BE
:101130008A830680F781E02DCE01019609952396DA
:10114000E2E00C94D027E0915203F09153033097E2
:1011500029F00190F081E02D0995089580E008952F
:1011600080913D0380FF0CC06091090170E075958E
:101170006795759567956115710549F1862F0895F5
:1011800081FF06C06091090170E075956795F3CF06
:101190006091090182FD0BC090913C039923A1F05D
:1011A0006091080180910901961738F0682F70E06E
:1011B0006038710500F38FE70895899FC0011124FD
:1011C00070E00E948327F4CF61E070E0D7CF81E028
:1011D000089580913D0380FF0DC060910B0170E088
:1011E000660F771F6038710570F56115710569F13B
:1011F000862F089581FF07C060910B0184E0689FEE
:10120000B0011124EFCF82FF04C060910B0188E090
:10121000F6CF80913E03882399F020910A016091D6
:101220000B018217A0F7869FC001112433E0880FBD
:10123000991F3A95E1F7622F70E00E948327D2CF81
:1012400068E070E0D5CF8FE7089581E00895F894C5
:10125000E82FE295EF70F0E031A1282F2F7081E0A8
:1012600090E001C0880F2A95EAF7982F9095932374
:1012700091A392A1892B82A37894089590915B0306
:1012800092FF06C0282F28712830F9F4877F8460E8
:1012900093FF06C0282F28712831F1F4877E8461DE
:1012A00020915C0320FF06C0382F38713830D9F404
:1012B000877F816021FF06C0282F28712831D1F453
:1012C000877E816194FD877E0895282F24712430C4
:1012D000F9F68B7F8860DCCF282F2471243101F749
:1012E0008B7E8861DDCF382F3171313019F78E7FD9
:1012F0008860E0CF282F2171213121F78E7E88610F
:10130000E1CFCF93DF93EC0182389105B9F108F07A
:1013100041C08133910509F49FC050F58932910590
:1013200009F48FC08A9709F49EC0C11520E5D20741
:1013300008F0BDC0C11530E4D30708F00AC1C03EB3
:10134000D10508F0A5C0CD3CD10508F000C1C83AD0
:10135000D10508F08FC0C53AD10508F0F0C0C13002
:10136000D10539F1209729F1C430D10510F546C0D7
:101370008533910509F460C0C997B9F680915B0384
:10138000837009F044C180915C0383FF12C0C9E2FD
:10139000D0E00FC0833E9105A1F178F4803E910525
:1013A00009F1823E910509F0C0CF80915B0382FD77
:1013B00021C0CE01DF91CF910895863E910561F164
:1013C000873E910571F1843E910509F0AECF809181
:1013D0005C0381FFEECF80915B03C7EED0E084FD1C
:1013E0000DC0E7CF80915B0380FD33C090915C031B
:1013F00090FFDFCFC3EED0E084FFDBCFD0E0C0E0D2
:10140000D8CF80915B0382FDFFC090915C0390FD7B
:10141000FEC084FFCECFF2CF80915B0383FDDDCF92
:10142000C8CF80915B0383FDF5C090915C0391FF71
:10143000F0CFC4EED0E0BDCF80915B0385FFB9CF84
:10144000A6CF80915B0385FDE8C080915C0383FF9C
:10145000B0CFC9E3D0E0ADCF80915B0386FFA9CFC9
:10146000CAE2D0E0A6CF80915B0386FFA2CFC1E3A2
:10147000D0E09FCFC13CD10508F6C85AD0E0CC0FD0
:10148000DD1FCB5CDD4F0990D881C02DD46491CF96
:10149000C11540E2D40708F0AAC0C11581E0D80701
:1014A00008F087CFC83ED10508F483CFA7CFC03658
:1014B00022E5D20718F5C03432E5D30708F053C04F
:1014C000C03242E5D40708F047C0C11582E5D8070D
:1014D00008F47FC02C2F2695269540E2249F90018A
:1014E00011248C2F8370C1E0D0E002C0CC0FDD1F2F
:1014F0008A95E2F7C22BD32BDD685BCFC03A22E599
:10150000D20760F4C03832E5D30708F441C0CF7188
:10151000D0E0DC2FCC27C46FD06A4BCFC03C42E573
:10152000D40708F44AC0C03E82E5D80708F066CF69
:10153000DC2FCC27CC27DF71C06FD06A3ACFC55AD9
:10154000D0E0CE5CDD4FC881D0E0D06432CFD06532
:1015500030CFDF70D06A2DCFCF71D0E0DC2FCC2719
:10156000C16FD06A26CF2C2F26952695277080E252
:10157000289F900111248C2F8370C1E0D0E002C01D
:10158000CC0FDD1F8A95E2F7C22BD32BDC6811CF7D
:101590002C2F26952695277040E2249F9001112438
:1015A0008C2F8370C1E0D0E002C0CC0FDD1F8A9584
:1015B000E2F7C22BD32BDA68FCCE8C2F8F710E94FE
:1015C0003E09C82FD0E0DC2FCC27CC27DF71D062BA
:1015D000F0CE8C2F8F710E943E0935E0D695C795CD
:1015E0003A95E1F7CF709C2FEC01D069E2CE8D2FB8
:1015F0008F710E943E0990E0982F882788279F715D
:101600009C012C2BE901E3CFC2EED0E0D2CEC0EE9C
:10161000D0E0CFCEC6EED0E0CCCEC5E3D0E0C9CE90
:1016200080911C03811110921C0308958095909164
:101630001B03982390931B0308958091F8029091C7
:10164000C702981301C008958F5F8770FACF292FC2
:10165000943078F58C3068F590E03CE0239F800D65
:10166000911D1124682F677023E0969587952A9520
:10167000E1F7FC01EE0FFF1FE80FF91FE155FD4FE9
:1016800050E040E080E0219130E0062E02C0369527
:1016900027950A94E2F721703327042E01C0220F08
:1016A0000A94EAF7822B4F5F5F4F4330510559F799
:1016B000089580E00895292F943098F58C3088F5AE
:1016C00090E03CE0239F800D911D1124282F27706E
:1016D00041E001C0440F2A95EAF723E096958795EB
:1016E0002A95E1F7FC01EE0FFF1FE80FF91FE15506
:1016F000FD4F30E020E070E05191DF011197CB0108
:10170000022E02C0969587950A94E2F78170819522
:101710008527842385278C932F5F3F4F2330310506
:1017200059F7089580939203089580919203982F1A
:101730009670963021F488600E94920B0895877FFE
:10174000FBCF21E030E001C0220F8A95EAF7209517
:101750008091920382230E94920B08959091F90246
:10176000809589238093F902282F277091F4282FE0
:10177000082E000C330B9217130659F090915C035E
:1017800092FF07C08595859585950E94A10B1092C3
:10179000F902089521E030E001C0220F8A95EAF7AE
:1017A00080919203822B0E94920B089580931D03D7
:1017B0000895829590E09C01220F331F220F331F62
:1017C0002C7C95958795959587958373282B30E08C
:1017D000C901880F991F8A7A359527952575822B1F
:1017E00008959FB7F89410925E039FBF9091850370
:1017F000943009F048C02091E9002F703091EC003E
:10180000932F917030FD90E8922B25E02093E90012
:101810002091EB0020FF34C02091EE0027FF30C064
:1018200020915D03222321F02091E80025FF28C0AC
:1018300010925D0326E03091E80035FF14C08093DC
:10184000F1008091E80085FD27C08091E80080FFCD
:10185000FCCF8091E8008E778093E8009F70909392
:10186000E90080E0089530918503343049F43091E7
:10187000EB0035FD05C0215041F481E080935D030C
:101880009F709093E9008FEF0895EFE9FFE03197A3
:10189000F1F700C00000CFCF8FB7F89421E020937C
:1018A0005E038FBFDBCF0F931F93CF93DF938B012B
:1018B000EA0190918503943061F58093E9008FEF00
:1018C0009091E800815095FD06C095ED9A95F1F74D
:1018D00000008111F5CF8091E80085FF1AC00E94B9
:1018E000F406811111C08091E80085FD06C0809149
:1018F000E8008E778093E800F2CFF80181918F01A4
:101900008093F100219779F78091E8008E7780939A
:10191000E800DF91CF911F910F91089543E050E0CF
:10192000BC0184E00E94530C089546E050E0BC01E5
:1019300084E00E94530C0895CF93DF93EC018091D3
:101940000E01811111C048E050E0BE0181E00E940B
:10195000530C80E2FE01A3E6B3E001900D928A955C
:10196000E1F7DF91CF91089580915B0387FF05C078
:1019700040E284E050E0BE01EACF48E081E0FACFE7
:10198000F89481E08093E00080E28093D800E9EC55
:10199000F0E010828FE19EE40197F1F700C00000B3
:1019A0001DBA109268001CBC10BE1FBA10927A00BB
:1019B00010926E0010926F001092710010927200DF
:1019C0001082ECEBF0E0108214B817B81AB81DB80A
:1019D00010BA108215B818B81BB81EB811BA0C94FA
:1019E000003F0895CF93DF93C6EAD1E060E0CE01D7
:1019F0000E94FD272196C11584E0D807B9F7DF9131
:101A0000CF9108951F93CF93DF93122F8430E0F48A
:101A10006430D0F44C30C0F4C42FD0E0CC0FDD1FC4
:101A200098E1699FC00DD11D112490E6899FC00DDA
:101A3000D11D1124632FCE0186960E94FD27612FB0
:101A4000CE0187960E94FD27DF91CF911F910895C7
:101A5000AF92BF92CF92DF92EF92FF921F93CF93FC
:101A6000DF9386ECC82E89E0D82ED0E07601C0E066
:101A700014C0F50125913491412F6C2F8D2F0E94B8
:101A8000020D82E0A80EB11C1F5F1C3091F788E1A7
:101A9000E80EF11CCF5FC43019F0570110E0E9CF18
:101AA000DF5F80E6C80ED11CD43001F7DF91CF9103
:101AB0001F91FF90EF90DF90CF90BF90AF9008956F
:101AC000CF93C82F6FEF811163E282E290E00E9412
:101AD000FD276FEFC11162E083E290E00E94FD27D5
:101AE0006FEFC11165E284E290E00E94FD27CF9183
:101AF000089580E00E94600D60E085E290E00E9421
:101B0000FD270E94280D0E94F20C81E00E94600DCA
:101B100008950F931F93CF93DF93843030F5643093
:101B200020F54C3010F5C42FD0E0CC0FDD1F28E19C
:101B3000629FC00DD11D112430E6839FC00DD11DC1
:101B40001124CE0186960E94EF27082F10E0102F57
:101B50000027CE0187960E94EF279801282BC90104
:101B6000DF91CF911F910F91089590E080E0F8CF21
:101B7000462F743040F46C3030F4843020F4672FFA
:101B80000E94890D089590E080E00895CF92DF9241
:101B9000FF920F931F93CF93DF936C0100919203F9
:101BA00080911D03082BC7E0D0E010E0FC2EC80197
:101BB0000C2E02C0959587950A94E2F780FD0CC023
:101BC0002197A0F7F12C8F2DDF91CF911F910F91CD
:101BD000FF90DF90CF900895B6018C2F0E94B80D32
:101BE0000E948109019761F3EECFCF93DF93EC015F
:101BF0000E94C60DBE010E94B80D0E948109DF91AE
:101C0000CF910895FC0183819481892B29F08081F3
:101C1000918189238F3F51F480E00895843FE1F75B
:101C200017C0883EA8F0813FB9F712C0808191812A
:101C30000E94F50D92959F70963099F358F4925F3B
:101C40009F70923048F7803F19F040F7883E20F7A8
:101C500081E008959A5FF4CF82E290E00E94EF273E
:101C6000833289F483E290E00E94EF27823059F4B6
:101C700084E290E00E94EF2791E0853209F090E045
:101C8000892F8170089580E0FCCF809108011F9218
:101C90008F93809109011F928F9380910A011F9267
:101CA0008F9380910B011F928F9380910C011F9253
:101CB0008F9380910D011F928F938DE298E09F93F7
:101CC0008F930E94CC068DB79EB70E960FB6F894F0
:101CD0009EBF0FBE8DBF0895883228F58E3108F063
:101CE00072C08B3041F130F4873009F4CFC08CE8FA
:101CF00099E0E0C0833109F45FC08431C1F78EEA16
:101D000099E00E94330680914F03882309F4FEC0B6
:101D100010924F0310924E0310924D0310924C03F9
:101D200010924B0320C08F3409F4C7C0D8F5893214
:101D300031F38833E1F681EB99E00E9433060E948B
:101D4000450E1F9281E08F931F9288E08F938AEA5D
:101D500098E09F938F930E94CC060F900F900F9066
:101D60000F900F900F9020914F03222309F4C9C0C8
:101D700080914B0390914C03009711F48FE091E018
:101D80009F938F931F922F938AE799E09F938F934E
:101D90000E94CC060F900F900F900F900F900F9015
:101DA00081E00895813509F49CC008F49CC0823517
:101DB00009F09DCF81E082C080EA99E00E9433065D
:101DC0000E94450ED0CF8D5180934F03833009F48C
:101DD00042C058F48130C1F08230A1F110924F031B
:101DE0008DE999E00E9433061BC0853009F445C097
:101DF000D8F1863099F788E091E090934E03809374
:101E00004D0387E591E008C08DE091E090934E038B
:101E100080934D0383E191E090934C0380934B03B7
:101E200080914F03882309F49ECF1F928F9389E9F5
:101E300099E09F938F930E94CC060F900F900F9084
:101E40000F9091CF8CE091E090934E0380934D03DF
:101E50008CE191E0E1CF8BE091E090934E03809391
:101E60004D0388E291E0D8CF8AE091E090934E0351
:101E700080934D0385E391E0CFCF89E091E090938B
:101E80004E0380934D0384E491E0C6CF81E08093BC
:101E90000D0184E180930C018AE080930B018EE1B7
:101EA00080930A0188E08093090188E28093080109
:101EB0008FE899E00E94330656CF8AE0E0914D0307
:101EC000F0914E033097D1F02081082E000C990B31
:101ED000820F911D8F3F910541F03CF08FEF808381
:101EE00007C08FEFEBCF86EFE9CF97FFF8CF1082D7
:101EF00080811F928F9386E899E09BCF83E899E0D9
:101F0000D9CF86E799E00E9433064ACF80E0089552
:101F100080914A0383FF7EC08EE893E00E943306DF
:101F2000809144031F928F9389E893E09F938F934E
:101F30000E94CC0687E893E00E9433068091450317
:101F4000282F082E000C330B3F938F9384E893E0E7
:101F50009F938F930E94CC0682E893E00E94330601
:101F600080914603282F082E000C330B3F938F934C
:101F70008FE793E09F938F930E94CC068DE793E0C9
:101F80000E94330680914703282F082E000C330B44
:101F90003F938F938AE793E09F938F930E94CC06A1
:101FA00088E793E00E94330680914803282F082E8B
:101FB000000C330B3F938F9385E793E09F938F93B0
:101FC0000E94CC0682E793E00E94330680913E0394
:101FD0001F928F938FE693E09F938F930E94CC067E
:101FE0008DE693E00E94330680913D031F928F930C
:101FF0008AE693E09F938F930E94CC0687E693E056
:102000000E9433068DB79EB74C960FB6F8949EBFCC
:102010000FBE8DBF0E944D089C0190914503809199
:102020004603982B21F03093420320934103909173
:10203000470380914803982B21F03093400320936D
:102040003F03E0915203F0915303309749F082E04F
:10205000809343030480F581E02D83E493E00995A8
:102060000895662309F45DC08D3C41F40E94E9089F
:102070008195809346030E94880F08958E3C19F441
:102080000E94E908F6CF8F3C31F40E94E90881955F
:1020900080934503F0CF803D19F40E94E908F8CF02
:1020A000893D29F40E94B00880934703E4CF8A3D1C
:1020B00021F40E94B0088195F7CF8B3D31F40E9446
:1020C000B008819580934803D6CF8C3D19F40E94C7
:1020D000B008F8CF9FE2980F983070F4815D990BAB
:1020E00021E030E001C0220F8A95EAF78091440395
:1020F000822B80934403BFCF8D3D31F480913D030B
:10210000816080933D03B7CF8E3D21F480913D03E4
:102110008260F7CF8F3D09F0AECF80913D038460A0
:10212000F0CF409145038D3C59F48091460387FFE1
:102130000DC01092460341110BC010923E0308C01F
:102140008E3C81F48091460318169CF3442381F061
:102150008091470390914803892B09F08CCF10920E
:102160003C0389CF8F3C49F447FFF0CF10924503E1
:10217000809146038111ECCFE0CF803D19F4141615
:10218000ACF3E4CF90914703893D29F41916F4F696
:1021900010924703DBCF8A3D19F497FFD7CFF8CFD2
:1021A000909148038B3D29F497FFD0CF10924803BC
:1021B000CDCF8C3D19F41916CCF3C8CF9FE2980F00
:1021C000983090F4815D990B21E030E0B90102C0B4
:1021D000660F771F8A95E2F7CB01809590914403B3
:1021E000892380934403B2CF8D3D31F480913D0328
:1021F0008E7F80933D03AACF8E3D21F480913D03D5
:102200008D7FF7CF8F3D09F0A1CF80913D038B7F6C
:10221000F0CF90910E01992359F190915B0397FFB4
:1022200027C0E82FE695E695E695EE3180F4F0E0DC
:10223000E257FD4F282F277081E090E001C0880F02
:102240002A95EAF780959281892382830895909157
:102250004A0390FF19C01F928F938DED92E09F93D8
:102260008F930E94CC060F900F900F900F900895BF
:10227000E0E9F2E09191891303C0DF0111971C920C
:1022800092E0E639F907B1F7089590910E0199238C
:1022900049F190915B0397FF25C0E82FE695E695FD
:1022A000E695EE3170F4F0E0E257FD4F877021E0E3
:1022B00030E001C0220F8A95EAF78281822B828367
:1022C000089590914A0390FF1EC01F928F938FEB49
:1022D00092E09F938F930E94CC060F900F900F90E7
:1022E0000F900895A0E9B2E0EFEF90E02D918217F2
:1022F00051F0EF3F19F4211101C0E92F9F5F963093
:10230000A9F7EF3F09F408950E2E000CFF0BE257DA
:10231000FD4FD5CF0F931F93CF93DF9380911B0376
:1023200090911A03892B80938E0290911C0399231C
:10233000B1F0892B80938E0280910E01882309F4DD
:102340006FC080915B0387FF6BC08EE1E0E9F2E034
:1023500090E0815008F066C091110E94100B40E29D
:1023600050E06AEF72E08EE892E00E943128892BFB
:1023700009F451C080E2EEE8F2E0AAEFB2E0019089
:102380000D928A95E1F7E0915203F0915303309753
:1023900009F441C080910E01882359F080915B03BC
:1023A00087FF07C080918E0280938F0286E0809322
:1023B0008E020280F381E02D8EE892E009958091F3
:1023C0004A0382FF28C080FF04C088E193E00E9496
:1023D0003306D0E0C0E002E113E080914A0380FFC1
:1023E0000EC0FE01E257FD4F80811F928F931F9315
:1023F0000F930E94CC060F900F900F900F90219694
:10240000C830D10551F780914A0380FF04C080E1B4
:1024100093E00E943306DF91CF911F910F910895B1
:1024200086E094CF2191222309F493CF9F5F91CF2F
:10243000882321F00E94160B0E948A110895882398
:1024400039F090911B03982B90931B030E948A11E3
:102450000895882309F456C0823879F40E94A308AD
:1024600081FF50C089E30E9445110E948A1189E3CF
:102470000E9409110E948A110895833859F40E941C
:10248000A30880FF3FC083E50E9445110E948A1186
:1024900083E5EECF843859F40E94A30882FF32C04E
:1024A00087E40E9445110E948A1187E4E1CF9CEFE6
:1024B000980F913AE8F290E2980F983050F48770B4
:1024C00091E001C0990F8A95EAF7892F0E94160BB7
:1024D000D1CF9BE5980F933028F490E080E00E94E4
:1024E0007E08089598E5980F993128F490E080E0EF
:1024F0000E945908089593E3980F933118F460E00F
:102500000E9431100895CF93C82F80915C0382FB05
:10251000992790F99C17F9F0C0FB82F980935C032E
:1025200060915B0370915C0384E090E00E941B2843
:1025300082E00E94AE0B80914A0380FF0CC01F9284
:10254000CF938BEF92E09F938F930E94CC060F90D6
:102550000F900F900F90CF91089510921B038091D0
:102560000E01E0E9F2E0882329F180915B0387FF07
:1025700021C08EE1DF011D928A95E9F790E080E0AD
:102580000E947E0890E080E00E94590810921A0391
:102590000E948A1186E0E3E4F3E0DF011D928A9550
:1025A000E9F710923E0310923C0310923D030E9403
:1025B000880F089586E0DECFAAE2B0E0E2EEF2E115
:1025C0000C94B32787E893E02091F100DC012D9370
:1025D000CD01B3E08F389B07B9F780918803833032
:1025E00009F472C0B8F4813009F449C0823009F4AA
:1025F000B3C08091E80083FF91C2809187039091DE
:1026000088039A3008F08AC2E92FF0E0E05CF74DC9
:102610000C9497278A3009F48EC08B3009F471C06E
:10262000893039F780918703813219F780918B03C4
:1026300090918C03009711F00297D9F68091E800F1
:10264000877F8093E8008091E80082FF38C09091F6
:10265000F3008091F200029731F48091F100813013
:1026600011F0863021F48091F10080936203809113
:10267000E8008B778093E8000E942507BACF80910D
:102680008703813A09F0B5CF8091E800877F809376
:10269000E80080918B0390918C03892B61F460E2B8
:1026A00083E693E070E00E94D1078091E8008B7789
:1026B0008093E8009ECF60E090E080E0F3CF8091CF
:1026C00085038111C0CF95CF80918703813A09F0AE
:1026D00090CF80918B0390918C03892B09F089CF47
:1026E0008091E800877F8093E8008091E80080FF78
:1026F000FCCF80910E018093F1008091E8008E77ED
:10270000B9CF80918703813209F073CF80918B0319
:1027100090918C03892B09F06CCF8091E800877F22
:102720008093E8000E9425078091890380930E0121
:102730000E94AD125ECF80918703813209F059CF9C
:102740008091E800877F8093E8000E9425078091B0
:102750008A03809361034DCF80918703813A09F00A
:1027600048CF8091E800877F8093E8008091E8005F
:1027700080FFFCCF80916103BECF803899F0823812
:1027800009F0CCC180918B038F70873008F0C6C1EF
:102790008093E9008091EB0085FB882780F91092F7
:1027A000E90006C0809183039091840391118260B7
:1027B0009091E800977F9093E8008093F100109249
:1027C000F1008091E8008E77A5C1882309F493C1B8
:1027D000823009F0A3C180918903811196C1809153
:1027E0008B038F702FEF280F263008F097C180934E
:1027F000E9002091EB0020FF88C1933031F48091F3
:10280000EB0080628093EB0080C19091EB009061BF
:102810009093EB0021E030E001C0220F8A95EAF7A7
:102820002093EA001092EA008091EB008860EACFE2
:10283000811174C1109189031F778091E300807822
:10284000812B8093E3008091E800877F8093E800EC
:102850000E9425078091E80080FFFCCF8091E30073
:1028600080688093E30082E0111183E08093850308
:1028700055C18058823008F051C1209189033091B0
:102880008A032C3DE3E03E07A1F583E08A838AE2D8
:1028900089834FB7F894DE01139620E03EE051E2C1
:1028A000E32FF0E050935700E49120FF03C0E2953E
:1028B000EF703F5FEF708E2F90E0EA30C0F0C79668
:1028C0008D939D932F5F243159F74FBF8091E8007E
:1028D000877F8093E8006AE270E0CE0101960E9453
:1028E000D1078091E8008B778093E80017C1C096EC
:1028F000E7CF80918B0390918C03432F5527433072
:10290000510509F44AC078F54130510509F47AC0FF
:102910008BE790E0EAE5FBE04230510509F0FEC0AC
:102920002091E800277F2093E80020918D033091CB
:102930008E038217930708F49C0140E021153105AE
:1029400009F065C0411163C08091E80082FDC9CFE4
:1029500080918503882329F2853019F28091E8005F
:1029600083FFF2CFBECF4132510509F43CC0423261
:10297000510509F0D3C08430910508F0CFC0FC01A7
:10298000EE0FFF1FE558FD4F0190F081E02D8958B3
:102990009D4FDC018C9190E01AC033272130310526
:1029A000D1F02115310561F02230310509F0B6C0B2
:1029B000E7EEFBE0E4918E2F90E0E7EEFBE007C04E
:1029C000EBE0FCE0E4918E2F90E0EBE0FCE0009780
:1029D00009F4A4C0A5CFEFEFFBE0E4918E2F90E0C7
:1029E000EFEFFBE0F4CF8430910508F097C0880F3B
:1029F000991FFC01ED57FD4F0190F081E02D89E01A
:102A000090E08ECF82E190E0E5EDFBE089CF809110
:102A10008503882309F465CF853009F462CF80915E
:102A2000E80083FD5ECF8091E80082FD8DCF80912C
:102A3000E80080FF83CF9091F3008091F200211590
:102A4000310519F08830910550F041E0089709F000
:102A500040E08091E8008E778093E8006FCF44914A
:102A60004093F1003196215031090196E8CF80382A
:102A700009F054C08091E800877F8093E80080913E
:102A800086038093F1009DCE811148C01091890387
:102A9000123008F043C08091E800877F8093E800FF
:102AA000109386030E942507112311F084E005C0CE
:102AB0008091E30087FDFACF81E08093850342E0B7
:102AC00061EC81E00E94440742E261EC84E00E94F4
:102AD000440742E261EC82E00E94440742E260EC7B
:102AE00083E00E94440742E261EC85E00E944407D3
:102AF0008091850313C080918903813079F481E04E
:102B0000933009F080E0809384031092E900809173
:102B1000E800877F8093E8000E9425078091E80005
:102B200083FF0AC08091E800877F8093E80080914E
:102B3000EB0080628093EB00AA96E3E00C94CF2731
:102B4000CF93C82F1F928F9381EC99E09F938F931F
:102B50000E94CC0681E001C0880FCA95EAF70E9466
:102B6000D60B0E94AD120F900F900F900F90CF9147
:102B700008950E94AD122FEF84E39CE02150804025
:102B80009040E1F700C0000088E19AE00FB6F894A9
:102B9000A895809360000FBE90936000FFCFA8E0DF
:102BA000B0E0E5EDF5E10C94AA278E010F5F1F4F11
:102BB00088E0F80111928A95E9F797E6E92E92E00C
:102BC000F92E6801AA24A394B12CF70181917F0109
:102BD0008F3F09F446C0F894E82FE295EF70F0E0DB
:102BE00021A18F70A50102C0440F551F8A95E2F7FD
:102BF000CA01922F982B91A392A18095892382A339
:102C0000789400C0EBE6F2E021E030E0912C812CDA
:102C100041914F3F09F467C0A42FA295AF70B0E077
:102C200090968C9190E04F7002C0959587954A954B
:102C3000E2F780FD58C0C901882A992A220F331F64
:102C400052E0E737F50721F7F701319780818F3F91
:102C500011F00E94270980EA8A95F1F7F601918226
:102C60008082F2E0CF0ED11C4BE6E41642E0F4067F
:102C700009F0ABCF48E050E0B80181E293E00E9458
:102C80003128892B99F188E0F801A1E2B3E00190A5
:102C90000D928A95E1F781E0809320030E944D0810
:102CA00090931F0380931E0380911E0390911F0336
:102CB0000E9432080597F0F048E050E061E273E0CE
:102CC00084E393E00E943128892BC9F088E0E1E297
:102CD000F3E0A4E3B3E001900D928A95E1F781E07F
:102CE0001092200308C090E080E0A6CF80912003DE
:102CF0008111DACF80E02896ECE00C94C62780E0C2
:102D0000EFCF67EE7EEF90E080E00E941B2860E04E
:102D100082E090E00E94FD2760E083E090E00E9466
:102D2000FD2710921D0360E074E184E090E00E94B2
:102D30001B2860E086E090E00E94FD276FEF87E0AF
:102D400090E00E94FD2740E050E0BA0188E090E06A
:102D50000E940F2860E08DE090E00E94FD2740E097
:102D600050E0BA0188E190E00E940F2860E087E11E
:102D700090E00E94FD2740E050E0BA018CE190E035
:102D80000E940F2870E060E080E290E00E941B2823
:102D900040E050E0BA0188E190E00E940F2880E016
:102DA0000E94600D0E94790D40E050E0BA018FE072
:102DB00090E00E940F2840E050E0BA0183E190E0EB
:102DC0000E940F280895B0E0A0E0E9EEF6E10C942F
:102DD000AF27EBEFE80FEF3308F04FC1F0E0E65B11
:102DE000F74D0C94972783E090E00E94EF271F9205
:102DF0008F9389EF94E09F938F930E94CC0682E09B
:102E000090E00E94EF2783FB992790F91F929F93F0
:102E100082FB992790F91F929F9381FB992790F944
:102E20001F929F93982F91701F929F931F928F9341
:102E300080EB94E09F938F930E94CC0684E090E017
:102E40000E94F72793FB222720F91F922F9387FBDD
:102E5000222720F91F922F9386FB222720F91F9209
:102E60002F9385FB222720F91F922F9384FB222783
:102E700020F91F922F9383FB222720F91F922F9373
:102E800082FB222720F91F922F9391FB222720F902
:102E90001F922F93292F21701F922F9381FB22279E
:102EA00020F91F922F93282F21701F922F939F9309
:102EB0008F9381EB93E09F938F930E94CC068DB705
:102EC0009EB78A960FB6F8949EBF0FBE8DBF81E065
:102ED0001CC08CE198E00E9433060E948116F7CF57
:102EE00086E195E00E943306F2CF80914A03807F0D
:102EF00080934A038BEC96E00E94330688E198E0C9
:102F00000E94330681E080934903CDB7DEB7E7E046
:102F10000C94CB278CEF97E00E9433060E94AD12F1
:102F20009FEF24E38CE0915020408040E1F700C007
:102F300000000E94C00CCBCF90914A03892F8E7F56
:102F400090FF816080934A0380FF03C080EF97E089
:102F5000C9CF83EE97E00E94330680914A03817FB8
:102F600080934A03B4CF90914A03892F8D7F91FFBC
:102F7000826080934A0381FF08C086ED97E00E943B
:102F8000330680914A038160EBCF88EC97E0AACFAB
:102F900090914A03892F8B7F92FF846080934A032C
:102FA00082FF03C089EB97E0EACF89EA97E09ACFE6
:102FB00090914A03892F877F93FF886080934A030B
:102FC00083FF03C08DE997E0DACF80E997E08ACFED
:102FD0008CE691E09F938F9382EF96E09F938F937F
:102FE0000E94CC060F900F900F900F9070CF0E9410
:102FF0004108062FF72EE82ED92EC0915B03C7FBA0
:10300000CC27C0F910916103D0910E010E94A30852
:10301000DF92EF92FF920F931F92CF931F921F9315
:103020001F92DF931F928F9385EF96E09F938F936C
:103030000E94CC068DB79EB70E960FB6F8949EBF31
:103040000FBE8DBF44CF0E94AD1290915B03892FBC
:1030500097FB87F9805880935B0387FF03C086E85E
:1030600097E040CF8BE797E03DCF80E00E94A0152E
:103070002ECF8953FBCF8D51F9CF89E797E00E947E
:10308000330680E042CFCF93C82F8823C9F082381F
:10309000C9F40E94A30881FD13C089E30E94451171
:1030A0000E948A112FEF87EE93E0215080409040DC
:1030B000E1F700C0000089E30E9409110E948A1113
:1030C000CF9108958338A1F40E94A30880FDF8CF22
:1030D00083E50E9445110E948A112FEF81EE94E052
:1030E000215080409040E1F700C0000083E5E4CF2C
:1030F0008438A1F40E94A30882FDE2CF87E40E94F5
:1031000045110E948A112FEF81EE94E021508040FA
:103110009040E1F700C0000087E4CECF8CEF8C0F29
:10312000813A08F078C0809149038130B9F1882351
:1031300059F1823009F45CC01092490380910E016C
:10314000882309F459C080915B0387FF55C0EC2F99
:10315000E695E695E695F0E0E257FD4F828190E036
:103160004C2F477021E030E002C0220F331F4A95F8
:10317000E2F782239323892B09F449C08C2F0E9404
:1031800009110E948A1143C080911B038232B1F65B
:103190008C2F0E94E316811193CFD0CF80911B0317
:1031A0008232B1F3C431C9F048F4CB3059F0C031A8
:1031B000C1F089EB92E00E94330611C0C93269F078
:1031C000C833B9F78BEC96E00E9433068BEB92E0A4
:1031D0000E94330681E08170DECF1092490380E0C7
:1031E000FACF82E08093490388E30E946C0EF2CF0D
:1031F0008C2F0E946C0E64CFE0E9F2E086E992E049
:103200002191C21709F4BACF8E179F07C9F78C2FE7
:103210000E94451153CF80E28C0F883068F4C7704C
:1032200021E030E001C0220FCA95EAF780911B032C
:10323000822B80931B0342CFEBE5EC0FE33040F48D
:10324000F0E0EE5CFD4F808190E00E947E0838CF78
:10325000E8E5EC0FE93150F4F0E0EE0FFF1FEB5C16
:10326000FD4F808191810E9459082ACF83E38C0F02
:10327000833108F025CF61E08C2F0E94311020CFE0
:103280001F93CF93DF93182FD0E0C0E0893311F460
:10329000C0E5D0E0812F0E944318209739F4812F98
:1032A0000E942912DF91CF911F9108958FE99FE02D
:1032B0000197F1F700C000002197EFCF0F931F9304
:1032C000CF93DF93C62FD42F022FFC018281882356
:1032D000A9F0609391030E944D089093900380930E
:1032E0008F03C77081E001C0880FCA95EAF70E947A
:1032F0001F12DF91CF911F910F910895809191033B
:10330000681332C080918F03909190030E9432081D
:10331000883C910548F510E21D0FCD17B9F080E209
:103320008C0F883040F4C77081E001C0880FCA95C7
:10333000EAF70E941812183048F481E09D2F977028
:1033400001C0880F9A95EAF70E941F12802F0E94F1
:103350004019183070F6D77081E001C0880FDA95F7
:10336000EAF70E941812C5CFC77081E001C0880F2C
:10337000CA95EAF7F6CFA8E0B0E0E1ECF9E10C94E9
:10338000A6278C01DC0113968D919C911497892BB3
:1033900039F08C9111969C9189238F3F09F0DFC4FD
:1033A0002896E0E10C94C2270E94C60DF82E682FE3
:1033B00089819A810E945B0B69817A818F2D0E949D
:1033C000B80D7C01F8018281882309F4A6C4970115
:1033D000225037472031310508F0B5C48FEF93E014
:1033E0000E94EF27811185C0EA94EA9466EAA62E2E
:1033F000BB24B394E11047C0FE01339686E0DF01A1
:103400001D928A95E9F75AE0452E7501BFEFEB1A38
:10341000FB0AC5010E94EF2789831A82882309F4D9
:1034200068C0813009F078C06501E2E0CE0ED11CA1
:10343000C7010E94EF278A83882309F45AC09FEFAF
:10344000980F933070F5F3E0AF0EB11CC6010E94E7
:10345000EF278B83882309F44CC01C82DE01119670
:103460007D01F7012081222381F2213009F094C0EF
:1034700091818281913009F051C0F2E0EF0EF11C90
:103480000E94401952C0A114F4E0BF0691F1C50199
:103490000E94EF27811101C0EA942FEFA21AB20A0D
:1034A000A9CF56018430D1F642E0E42EF12C56012A
:1034B0002FEFA21AB20AC6010E94EF27E1E0F0E066
:1034C000EC0FFD1FEE0DFF1D8083882391F08C37DC
:1034D00041F4E2E0F0E0EC0FFD1FEE0DFF1D108265
:1034E000BDCF3FEFE31AF30A650187E0E816F10468
:1034F000F1F68091F902877009F452CFD801129643
:103500008C91882309F44CCF80915C0382FF48CFD3
:1035100082E00E94AE0B44CF5701A0CF923049F415
:1035200022E0E20EF11C0E944318EFEFEE1AFE0AB1
:1035300098CF933031F432E0E30EF11C0E9429124F
:10354000F4CF943021F08FEFE81AF80AEECF92E032
:10355000E90EF11C30E020E0B7016F5F7F4FD7012B
:1035600011964C918053990B8A30910550F021505F
:103570003109D8F2EFE9FFE03197F1F700C0000020
:10358000F6CF429EF001439EF00D11249C012E0FB8
:103590003F1F842F7B01E0CFE22FF0E0EA5EFD4F7A
:1035A0005490822F86958695869590E0FC01EA5F7F
:1035B000FD4F64902770712C022E02C075946794A1
:1035C0000A94E2F731E063227724FC01EA50FE4FCF
:1035D0008490912C022E02C0959487940A94E2F76D
:1035E000A1E08A229924FC01EA51FE4FC490D12C1B
:1035F00002C0D594C7942A95E2F7B1E0CB22DD242E
:103600006114710419F081EE0E9443188114910431
:1036100019F086EE0E944318852D0E9440198114EE
:10362000910419F086EE0E9429126114710419F0B8
:1036300081EE0E942912C114D10409F476CF8CE2E4
:103640001FCF81E00E94CA0B0E94950B52CF81E0F0
:103650000E94A10BF9CF82E0FBCF26E241EE61EEA2
:10366000C8010E945E1945CF27E245EE65EEF8CF0E
:1036700026E241EE60EEF4CF27E245EE64EEF0CFB5
:1036800026E241EE62EEECCF27E245EE66EEE8CFB1
:1036900028E241E0EBCF882309F489C3109291031B
:1036A000C7019057839708F06DC384E090E00E94B3
:1036B000F72790935C0380935B03F701E150F04799
:1036C000E232F10520F4E757F74D0C9497278091EB
:1036D0005B03816080935B0395C080915C0388608D
:1036E00080935C038FC080915B038260F3CF8091F5
:1036F0005B038460EFCF80915B038860EBCF8091A8
:103700005C038160EDCF80915C038260E9CF8091A2
:103710005B038061DFCF80915B038062DBCF8091B0
:103720005B038064D7CF0E94AD1280915B038068F9
:10373000D1CF80915B038C60CDCF80915C0383609F
:10374000CFCF80915B038E7FC5CF80915C03877F55
:10375000C7CF80915B038D7FBDCF80915B038B7F53
:10376000B9CF80915B03877FB5CF80915C038E7F5B
:10377000B7CF80915C038D7FB3CF80915B038F7E49
:10378000A9CF80915B038F7DA5CF80915B038F7B59
:10379000A1CF0E94AD1280915B038F779BCF809168
:1037A0005B03837F97CF80915C038C7F99CF80915F
:1037B0005B0382FB992790F921E0922790FB82F925
:1037C00090FB83F987CF80915C03982F909591703F
:1037D0008E7F892B90FB81F983CF90915B03892F9A
:1037E0008F7B96FF806476CF0E94AD1290915B0331
:1037F000892F97FB87F980586DCF61E08EE090E0CC
:103800000E94FD2760915B0370915C0384E090E06F
:103810000E941B280E94AD126CCE60E0EFCF909109
:103820005B03892F8F7E94FF806154CF90915B035F
:10383000892F8E7F90FF81604DCF90915C03892FFF
:10384000877F93FF88604CCF85E3ACC285E3BAC223
:1038500090914A03892F8E7F90FF816080934A0365
:1038600080FF05C088EA92E00E94330642CE86E9D6
:1038700092E0FACF6FEF7FEF90E080E00E941B288C
:103880000E94B91580915C0382FB882780F991E042
:1038900089270E948312F8018281E080F1808823C9
:1038A00009F446C0C7010E94C60DD82E682FC70173
:1038B0000E945B0BB7018D2D0E94B80D0E948109FB
:1038C0007C01882ED8011296DC9012971596BC9038
:1038D000B2943FE0B3228091F9028770C1F0AD2C21
:1038E000DD20B1F08F2D807F803421F080E28E0DBD
:1038F000883068F080915C0382FF09C082E00E94FA
:10390000AE0B8091F9028770AA24A3948111A12C97
:103910009F2C92942FE09222BBE0B91508F477C057
:10392000E92DF0E0E555F74D0C94972780E0B1CFF5
:10393000C7010E94270BD82EBDCFEF2DEF70CE2EE2
:103940008F2D807F19F0C29490EFC922DD20B9F04D
:10395000CC2069F080E28E0D883010F0811009C013
:1039600080911B03C82AC0921B030E948A118E2DCE
:103970004CC080911A03C82AC0921A03F6CF8E2D2C
:103980000E942912CC2009F442C080E28E0D8830BA
:1039900010F0811004C08C2D0E94160B06C0C0943C
:1039A00080911A03C822C0921A030E948A112FC064
:1039B000FF2DFF70CF2E8F2D807F803219F0C294A3
:1039C00080EFC822882089F021E0821609F46CC0BB
:1039D000DD2009F476C0BB2009F46CC0F8018581B4
:1039E00080FFC5CF8F70858365C020915C0322FD69
:1039F00034C0DD2061F1CC2039F080911B03C82A4E
:103A0000C0921B030E948A1180E00E944318A92DD6
:103A1000A850BB0B149710F40E94A308AA2009F425
:103A2000BFCC8091F90280FDBBCCF8011282859554
:103A3000859585950E94CA0BC8010E94BB1980918B
:103A4000F9028595859585950E94A10BA9CC80E00A
:103A50000E942912CC20D9F29ECFDD2099F09091BE
:103A60001C03892F8C29B11003C00E941F12CFCFD5
:103A700031E0B312FACF22FFCACF981741F28093F8
:103A80001C03C5CFB11006C00E94100B8C2D0E94E4
:103A90001812BDCF81E0B81609F4B9CF8C2D0E9461
:103AA00018120E94100BB3CFDD2031F095E09B156A
:103AB00008F4ADCF8C2DD9CFA4E0AB1508F4A7CF77
:103AC000E5CFBB2019F3F9E38F1209C02FEF37EED2
:103AD00083E0215030408040E1F700C000008E2D8F
:103AE0000E94291294CF8F2D86958695837061F060
:103AF000813009F08CCFC7019370D11002C080E0F3
:103B000090E00E94590883CFC7019370D11002C082
:103B100080E090E00E947E087ACF6D2D8E2D0E946D
:103B2000311075CF8F2D837091F5D11070CF4E2D40
:103B3000429546954770440F440F8E2D8F70042E8A
:103B400001C0880F0A94EAF72E2D2071E4FE07C009
:103B50002FE030E001C0220F4A95EAF720953F2D73
:103B6000369536953370323069F050F440911D032C
:103B7000313029F0822B84230E94D60B48CF842B2E
:103B8000822BFACF282B80911D038227F5CF8695B3
:103B9000DD2011F08F2D8170882309F438CF4E2D50
:103BA000429546954770440F440F8E2D8F70042E1A
:103BB00001C0880F0A94EAF72E2D2071E4FE07C099
:103BC0002FE030E001C0220F4A95EAF720953F2D03
:103BD000369536953370323069F050F44091920347
:103BE000313029F0822B84230E94920B10CF842B3A
:103BF000822BFACF282B809192038227F5CF9F2D1D
:103C00009F70F92EDD2029F0892F0E94CA0B8E2D7E
:103C10002CCF8E2D0E9418128F2D0E94A10BF7CE53
:103C20008E2DA2EF8A16B1F1A81570F0B0EF8B16A9
:103C3000D1F0E1EF8E1691F0DD2009F45EC0B110F5
:103C400096CE8F2D8F712AC0F3EF8F1651F124EF8E
:103C50008212F2CF80915C0382FD2FC08F2D8F7175
:103C6000DD20D9F21BC0DD2081F034E03B1508F4E3
:103C7000CECE2F2D2F7181E090E001C0880F2A95C4
:103C8000EAF7909192038927AFCF85E08B1508F46E
:103C9000BECEEFCF8F2D8F71D110BFCF0E94CA0B38
:103CA000B6CE80E0DD2009F49FCF9F2D9F7181E08B
:103CB00001C0880F9A95EAF797CFDD2099F09F2DE4
:103CC0009F71F92E892F0E94CA0B80915C0382FF9D
:103CD00007C0A8E0FA9EC001112483608093F90216
:103CE0008F2DDCCF81E00E94AE0BB1E0BB1508F058
:103CF0008ECE82E00E94AE0B8ACEBB2059F0893373
:103D000009F0EDCEEFEFF7EE23E0E150F040204078
:103D1000E1F7E3CE8F2D8F7180CFE114F7E7FF0637
:103D200009F495CC21E0E21627E7F20609F493CCDA
:103D3000F701E851FC47E730F10508F0ACCCE95455
:103D4000F74D0C949727E11437E7F30609F479CC83
:103D500091E0E91697E7F90659F782E073CC85E020
:103D6000F801DE01119601900D928A95E1F7D801D4
:103D700012962C9189819A81211116CB0E94270BD2
:103D8000F82E1ACBB6E1EB16BCE7FB06F1F48091F6
:103D90001B038A7A91E009F490E09093AE028111BE
:103DA00053CD89E20E9445110E948A11A2CBE6E11F
:103DB000EE16ECE7FE0609F06ECD8091AE028111A1
:103DC00045CD89E20E940911EFCFF3E0EF16FCE741
:103DD000FF0609F44FCDD8F431E0E3163CE7F306D3
:103DE00009F44ECD08F034CDE1149CE7F90609F052
:103DF00052CD0E94AD12FFEF24E33CE0F150204091
:103E00003040E1F700C000000E94C00C72CBABE56F
:103E1000EA16ACE7FA0609F489CDBCE5EB16BCE777
:103E2000FB0609F42FCDEAE5EE16ECE7FE0609F0F5
:103E300032CD81E02ECD1F93CF93DF938091C602C8
:103E4000807F09F049C08091C302882309F444C0EF
:103E50008091F802D091C7026091C1027091C202B4
:103E6000A091C402B091C502C62FC72316E0D8178F
:103E700099F190E0109711F0CF3F19F401968770F7
:103E8000F6CF189F9001199F300D1124F901E853C6
:103E9000FD4F41814713F2CF40814613EFCF42815E
:103EA0004111ECCF438154814A1B5B0B483C5105C7
:103EB00028F78091C6028F7080618093C602F90155
:103EC000E353FD4F80818F708061808381EC92E0AD
:103ED0000E94BB190E941D0BDF91CF911F91089585
:103EE000A1E1B0E0E6E7FFE10C94AC278C0185E0AE
:103EF000F801DE011D9601900D928A95E1F7F80117
:103F0000E28081ECA82E82E0B82E6091C40270910C
:103F1000C5026115710509F426C19091C102409155
:103F2000C202892F84238F3F09F41DC12081318172
:103F3000C380D480F090C302F601E61BF70BFF208C
:103F400009F4DCC08091C602582F507FE83CF1058F
:103F500008F09FC051116BC0FE2C431314C0921384
:103F600012C0E11010C08F7080618093C602C5013D
:103F70000E94BB198091C602F80185838F2D61963E
:103F8000EAE00C94C827C114D10429F0822F8323BE
:103F90008F3F09F003C180E0F82FF170DF2E80FF22
:103FA0003CC08091F8024091C70256E0841315C0CE
:103FB0002D873E878D859E850E94F50D292F2295A0
:103FC0002F702230F0F0243018F59F70F1F0F801D6
:103FD0009581907FD1F4D12C1EC090E0589FF001C4
:103FE000599FF00D1124E853FD4F6181361306C02F
:103FF0006081261303C06281E6120FC001968770AC
:10400000D5CF9F7011F0882331F3805E883018F38C
:10401000C8010E94BB19FD2CB1CFEE2009F4AECF30
:104020008091C60281608093C602F12CA7CF431312
:1040300006C0921304C0F801EE2009F479C0C8014B
:104040000E94020E882309F1EE20F9F08091C60249
:10405000803270F02091C1023091C20238872F83E4
:104060001986DB86CA868C87CE0107960E94BB190B
:1040700086E0F801A1ECB2E001900D928A95E1F79B
:104080000E941B1FFF24F39479CFC8010E94BB1923
:10409000F9CF51110AC081EC92E00E94BB1986E071
:1040A000F50111928A95E9F7C0CF43130FC092131F
:1040B0000DC0E1100BC0F8018583C8010E94BB1937
:1040C00086E0F50111928A95E9F758CFC8010E9460
:1040D000020E8823D1F2EE20C1F28091C602803216
:1040E00038F22091C1023091C2023A8329831B82A7
:1040F000DD82CC828E83CE010196B8CFE83CF105FB
:10410000F8F6FE2CEE2009F243131FC092131DC0D7
:104110008091C60280FD10C0982F907F69F0F80151
:104120008583903F31F0982F907F905F8F70892B1F
:104130008583C8010E94BB1986E0F801A1ECB2E0BA
:1041400001900D928A95E1F719CFC8010E94020EE5
:1041500081118ECF8091C60281608093C602C80112
:104160000E94BB190BCFEE2009F48FCFC8010E942B
:10417000020EF82E882309F488CF86E0F801A1EC1E
:10418000B2E001900D928A95E1F78091C102909181
:10419000C2020E94F50D0E941B1FF0CE81E08E2509
:1041A000FBCEA7E1B0E0E7EDF0E20C94B3274B8B38
:1041B0005C8B6D8B7E8B8F8B611110921A031A8A28
:1041C000198A85E0FE017396DE011D9601900D921D
:1041D0008A95E1F786E0FE013D96DE011796019093
:1041E0000D928A95E1F7CE0107960E94701F8823F1
:1041F00059F016E08091F8029091C702891343C0EC
:104200006796E3E00C94CF2786E0FE013796DE0147
:10421000119601900D928A95E1F78A859B85892BED
:1042200041F38F81988589238F3F19F32091C7022D
:1042300030E0C9010196877099274091F80248172C
:10424000190671F40E94AD121092C7021092F80282
:1042500086E0E1ECF2E0DF011D928A95E9F7C9CF33
:1042600096E0929FD001939FB00D1124A853BD4FAB
:10427000FE01319601900D929A95E1F78093C70265
:104280000E941D0BB6CF819FC001112488539D4F02
:104290000E94701F882309F4B3CF8091F80290E048
:1042A0000196877099278093F802A4CF1F920F92EE
:1042B0000FB60F9211242F933F934F935F936F93F9
:1042C0007F938F939F93AF93BF93CF93DF93EF939E
:1042D000FF93D091E900DF708091EC00C82FC1708E
:1042E00080FDC0E81092E9008091F000877F809304
:1042F000F00078940E94DC121092E9008091F000A6
:1043000088608093F000CD2BCF70C093E900FF91BF
:10431000EF91DF91CF91BF91AF919F918F917F915D
:104320006F915F914F913F912F910F900FBE0F9022
:104330001F9018951F920F920FB60F9211242F9372
:104340003F934F935F936F937F938F939F93AF931D
:10435000BF93EF93FF938091E10082FF15C080919E
:10436000E20082FF11C08091E1008B7F8093E10029
:1043700020915F032F5F822F62E30E9477279923AA
:1043800009F4C0C020935F038091DA0080FF28C049
:104390008091D80080FF24C08091DA008E7F8093C6
:1043A000DA008091D90080FFE3C080E189BD82E11D
:1043B00089BD09B400FEFDCF81E08093850386E4CA
:1043C0009BE00E94330680916003811109C00E9426
:1043D000D5060E9476078091E20084608093E20017
:1043E0008091E10080FF1BC08091E20080FF17C038
:1043F0008091E2008E7F8093E2008091E2008061F4
:104400008093E2008091D80080628093D80019BC2C
:1044100085E0809385038EE49BE00E9433068091C3
:10442000E10084FF2FC08091E20084FF2BC080E177
:1044300089BD82E189BD89B5982F917080FFFBCF3E
:104440008091D8008F7D8093D8008091E1008F7E8D
:104450008093E1008091E2008F7E8093E200809162
:10446000E20081608093E20080918603882309F452
:1044700089C084E08093850382E59BE00E94330637
:10448000809185038091E10083FF2BC08091E20041
:1044900083FF27C08091E100877F8093E10082E065
:1044A00080938503109286038091E1008E7F809334
:1044B000E1008091E2008E7F8093E2008091E20033
:1044C00080618093E20042E060E080E00E94440767
:1044D0008091F00088608093F00086E59BE00E9468
:1044E0003306FF91EF91BF91AF919F918F917F9193
:1044F0006F915F914F913F912F910F900FBE0F9051
:104500001F90189510925F0380915E03882309F431
:104510003BCF809185038430C1F49091E9009F7076
:104520002091EC00822F817020FD80E8892B95E09E
:104530009093E9009091EB0090FF04C09091EE0001
:1045400097FD08C08F708093E90010925E031CCF26
:104550001092F1009091E80095FDFACF9091E8005B
:1045600090FFF0CF9091E8009E779093E800EACF1B
:1045700019BC109285038AE49BE00E9433061092D6
:1045800060032ECF8091E30087FD93E09093850335
:1045900073CF78941F921FB61F9211248F939F930D
:1045A000AF93BF938091570390915803A091590303
:1045B000B0915A030196A11DB11D809357039093AA
:1045C0005803A0935903B0935A03BF91AF919F91A1
:1045D0008F911F901FBE1F9018951F921FB61F929C
:1045E00011248F939F93AF93BF93809156038111B2
:1045F00013C08091570390915803A0915903B09133
:104600005A034196A11DB11D8093570390935803FF
:10461000A0935903B0935A03BF91AF919F918F918B
:104620001F901FBE1F901895CDB7DEB7AA970FB683
:10463000F894DEBF0FBECDBF85B7806885BF85B754
:10464000806885BF84B7877F84BF0FB6F894A8952C
:1046500080916000886180936000109260000FBEBE
:1046600080E890E00FB6F894809361009093610029
:104670000FBE81EF9BE090938D0280938C020E948D
:10468000D5060E9476078091E20084608093E20064
:104690007894809185038823A1F01091E9001F7020
:1046A0009091EC00892F817090FD80E8182B10927A
:1046B000E9008091E80083FD0E94DC121F701093D6
:1046C000E90082E084BD93E095BD9AEF97BD8093A9
:1046D0006E000E942C0E811102C00E94790D80EFA5
:1046E0000E94270981EF0E94270985EF0E94270970
:1046F00084E30E9427090BE612E0D8018D918D0119
:104700008F3F11F00E942709B2E007371B07A9F776
:1047100088E0E4E3F3E0DF01282F1D922A95E9F712
:10472000E1E2F3E0DF011D928A95E9F790E080E095
:104730000E94F727873E9E4F21F40E942C0E811184
:1047400002C00E94811682E090E00E94EF278093D1
:104750004A0384E090E00E94F72790935C038093E3
:104760005B030E94CF15EFE3FCE93197F1F700C03E
:1047700000000E94CF158091340380FF08C06FEFC6
:104780007FEF90E080E00E941B280E94C00C83E035
:1047900090E00E94EF270E94D60B80E091E090937A
:1047A000530380935203E3E34E2EE3E05E2E8091A9
:1047B0008503853079F48AE293E00E94330600E1B4
:1047C00012E180918503853009F45DC00E94AD122D
:1047D0000E94A3080E94CF156BE2C62E63E0D62E7E
:1047E00074E3672E73E0772ED301F60121913191A6
:1047F0008D919D914E165F0609F481C028173907E7
:10480000A9F380914A0381FD8AC1912CD3010D91B6
:104810001D913D01F601A190B1906F01A016B10666
:1048200059F1A026B126812CEE24E394F12CC70186
:104830008A219B21892BB1F08EA29FA221E0C70182
:1048400080239123892B09F420E028A70E944D089A
:104850008160782F9AA789A74EA15FA168A58AA534
:104860000E94D1208394EE0CFF1CFCE08F12DFCF5E
:10487000F601329711830083939424E09212C6CFFD
:104880000E9441085EC080918503843021F110921E
:10489000560388E190E0A0E40FB6F894A8958093C1
:1048A00060000FBEA093600083B7817F846083BFE8
:1048B00083B7816083BF7894889583B78E7F83BFE9
:1048C0000FB6F894A895809160008861809360008D
:1048D000109260000FBE80918403882309F471CF89
:1048E0000E94CF15E4E3F3E081919191892B09F0C7
:1048F000DAC28CE393E08E179F07B1F762CF2817D7
:10490000390709F07ECF0E944D088C018091290360
:1049100090912A0308171907A1F08FEF89A38AA3A2
:104920001BA20E944D088160782F9DA38CA349A1F2
:104930005AA16BA18DA10E94D12010932A0300934C
:10494000290386E0E3E4F3E0DE01119601900D9285
:104950008A95E1F71092450310924603109247039F
:10496000109248038B819C81892B91F080914103A7
:10497000909142030E943208AC0190913E0399232A
:1049800009F40BC180910C018417150608F413C1BA
:104990008D819E81892B09F44AC080913F039091BB
:1049A00040030E9432089C0190913C03992309F432
:1049B00099C221353105D8F19F3F19F09F5F90933F
:1049C0003C031D81112359F00E94B0089FEF11167E
:1049D0000CF491E0899F802D1124809347031E8160
:1049E000112359F00E94B0089FEF11160CF491E0CA
:1049F000899F802D112480934803309147033323EE
:104A0000B1F020914803222391F045EB3403C0011B
:104A10001124992309F410C19093470345EB240313
:104A200090011124332309F40BC13093480346E06D
:104A300050E0BE016F5F7F4F83E493E00E94312816
:104A4000892B61F48091450390914603892B9091C5
:104A50004703892B90914803892B11F00E94880FFE
:104A600086E0FE013196A3E4B3E001900D928A95B1
:104A7000E1F70E94A308182F80913303181731F132
:104A8000109333030E94410880914A0382FF1EC0A5
:104A900080FF1CC08CE593E00E94330680914A039E
:104AA00080FF14C01F921F9387E593E09F938F931D
:104AB0000E94CC0680914A030F900F900F900F90A8
:104AC00080FF04C085E593E00E9433068091850352
:104AD000843009F06CCE83E08093E9008091E80097
:104AE00082FF65CE8091E80090E085FF06C00E94BD
:104AF000F406882309F4A8C091E08091E8008B7740
:104B00008093E800992309F452CEE981E150E33122
:104B100008F0C3C0F0E0E254F74D0C9497278EE301
:104B200093E00E94330634E3E32E33E0F32E10E0EB
:104B300000E049E3842E43E0942E50E3A52E53E099
:104B4000B52E1F930F939F928F920E94CC0686E3FF
:104B500093E00E943306D7018C9111962C90B2E01D
:104B6000EB0EF11C0E94D90B382E822D0E94D90B1E
:104B70003F928F93BF92AF920E94CC068EE293E059
:104B80000E9433060F5F1F4F0FB6F894DEBF0FBEB3
:104B9000CDBF04301105A9F638CE20910D018AE071
:104BA000289F900111242417350708F0F1CE9F5F4C
:104BB00090933E0302C09F3FD1F71B81112359F010
:104BC0000E94E9089FEF11160CF491E0899F802D57
:104BD0001124809345031C81112359F00E94E90898
:104BE0009FEF11160CF491E0899F802D1124809382
:104BF000460330914503332309F4CACE209146037E
:104C0000222309F4C5CE45EB3403C00111249923B6
:104C100059F09093450345EB24039001112433236D
:104C200039F030934603B4CE81E080934503F3CF4F
:104C300081E080934603ACCE81E080934703EECEC3
:104C400081E080934803F3CE80E2E82EF12C8E01C0
:104C50000F5F1F4F8091E80085FD0AC08091E8003A
:104C60008B778093E8000E94F406882399F344CF61
:104C70008091F100D8018D938D01B1E0EB1AF1081C
:104C800049F73ACF1A828BE08B8337C08A81823012
:104C900009F41FC128F48130C9F18FEF89832DC039
:104CA000833039F08430C9F71B821C821D821E823A
:104CB00024C0809134039091350398278927982741
:104CC0009C838B83809136039091370398278927A3
:104CD00098279E838D83809138039091390398277C
:104CE0008927982798878F8380913A0390913B0377
:104CF0009827892798279A87898740E250E0BE0144
:104D00006F5F7F4F82E00E94530C51CD0E9441089B
:104D10000E949D276B837C838D839E83EECF8A8147
:104D2000823019F0853049F3B8CF6B817C818D8159
:104D30009E810E949D2785E290E00E94FD27DDCFA5
:104D40004C816B818A810E94890D98278927982739
:104D50009E838D83D2CF2D813E8132272327322718
:104D60004C816B818A810E94020DC7CF0E94280D61
:104D7000C4CF80E18A83C1CF82E08A838AE584CF71
:104D80000A811B81102701271027FE0131967F0120
:104D9000CC80CF018C0D911D6C01C8018A559E4FAE
:104DA000EC14FD0409F4A9CF0A35A2E01A0750F467
:104DB0000E94EF27F70184830F5F1F4FBFEFEB1AAD
:104DC000FB0AEBCFD70114961C92F6CF0A811B8108
:104DD000102701271027FE0131966F01EC80E00EAD
:104DE000F12EF11CC8018A559E4FE016F10609F418
:104DF00084CF0A35F2E01F0728F4D60114966C918F
:104E00000E94FD27BFEFCB1ADB0A0F5F1F4FEACFCF
:104E10000E94F20C72CF84E0ADCF0A811B81102773
:104E200001271027FE0131967F01CC80CF018C0D28
:104E3000911D6C01C8018696EC14FD0409F45DCF48
:104E40000038A1E01A0750F40E94EF27F70184838D
:104E50000F5F1F4FBFEFEB1AFB0AECCFD701149681
:104E60001C92F6CF0A811B81102701271027FE0113
:104E700031966F01EC80E00EF12EF11CC801869690
:104E8000E016F10609F439CF0038F1E01F0728F4E5
:104E9000D60114966C910E94FD27BFEFCB1ADB0A56
:104EA0000F5F1F4FEBCF09BD19BD09B400FEFDCF49
:104EB0008091D8008F7D8093D8008091E00082603F
:104EC0008093E0008091E00081FDFCCF0E94AD1254
:104ED00078CC85E290E00E94EF271B821C821D8225
:104EE0008E830BCF2B30310508F068CDA0CD991BF8
:104EF00079E004C0991F961708F0961B881F7A95D1
:104F0000C9F78095089597FB072E16F4009407D0F3
:104F100077FD09D00E94DB2707FC05D03EF4909571
:104F200081959F4F0895709561957F4F0895EE0F7D
:104F3000FF1F0590F491E02D0994692796276927B2
:104F400078278727782708952F923F924F925F9274
:104F50006F927F928F929F92AF92BF92CF92DF9289
:104F6000EF92FF920F931F93CF93DF93CDB7DEB7EE
:104F7000CA1BDB0B0FB6F894DEBF0FBECDBF099482
:104F80002A88398848885F846E847D848C849B84D9
:104F9000AA84B984C884DF80EE80FD800C811B81E7
:104FA000AA81B981CE0FD11D0FB6F894DEBF0FBE16
:104FB000CDBFED010895AA1BBB1B51E107C0AA1F7D
:104FC000BB1FA617B70710F0A61BB70B881F991FAA
:104FD0005A95A9F780959095BC01CD010895F9994E
:104FE000FECF92BD81BDF89A992780B50895A8E1BA
:104FF000B0E042E050E00C942328262FF999FECF30
:1050000092BD81BDF89A019700B4021639F01FBA1B
:1050100020BD0FB6F894FA9AF99A0FBE0895039638
:10502000272F0E94FE270E94FD27252F0E94FE2782
:10503000242F0C94FE270196272F0E94FE270C9404
:10504000FD27DC01CB01FC01F999FECF06C0F2BDC2
:10505000E1BDF89A319600B40D9241505040B8F736
:105060000895FB01DC0104C08D910190801921F4A9
:1050700041505040C8F7881B990B0895F894FFCF12
:10508000BD13E5138E15E5138E15181439148E15FE
:10509000371544158A1775179C17F3163D183D18D8
:1050A00070173D183D18C8173D18D81723183D181C
:1050B0003D183D183D18F7173D183D18E8173D18E5
:1050C000B3173D183D183B183B183B183B183B18CD
:1050D0003B183B183B183B1835183D188A176917C1
:1050E0003D183D183D183D183D183D183D183D1818
:1050F0003D183D1835183D183D1870173D183918E2
:105100003918391839183918391839183918391817
:105110003518A11B161CA91B731B771BAD1B7B1B12
:10512000B11BBD1B871B0F1C8B1BC11B8F1BC51B02
:10513000ED1B931BC91BF41B991BCF1BD71B7F1B9C
:10514000B51B831BB91B9D1BD31BE31BFD1B0D1C38
:105150006D1BA51B1D1C9D1C9D1CD81CD81C731DE4
:105160008D1D071D071D921DFF1D101E101E381BD3
:105170003C1B2D1B341B401B441B481B4226462650
:105180008F26A026AB26B6264D264D264D264D262B
:105190004D26B926BC26C026E62608270B270D2754
:0251A0003227B4
:1051A2002F089C0C950C8E0C28081E0A1401013F36
:1051B2003F3F006D6B5F64656C6179006D6B5F6989
:1051C2006E74657276616C006D6B5F6D61785F7392
:1051D20070656564006D6B5F74696D655F746F5FA8
:1051E2006D6178006D6B5F776865656C5F6D617886
:1051F2005F7370656564006D6B5F776865656C5F92
:1052020074696D655F746F5F6D6178000A092D20A6
:1052120056657273696F6E202D0A5649443A2030E2
:10522200783635333228227061756C222920504934
:10523200443A203078303036392822706F6C6C79DD
:1052420034302076322229205645523A20307830A6
:105252003030310A4255494C443A20202846656292
:105262002032352032303233290A4F5054494F4EC2
:10527200533A204C554641204D4F5553454B4559C5
:105282002045585452414B455920434F4E534F4CA1
:105292004520434F4D4D414E44204E4B524F204CE2
:1052A200544F203531320A4743433A20382E352EA7
:1052B20030204156522D4C4942433A20322E312E53
:1052C20030204156525F415243483A20617672354E
:1052D2000A00818283E200E900EA00B500B600B765
:1052E20000CD008301CC008A0192019401210223A6
:1052F2000224022502260227022A02B300B4006F0A
:105302000070009F01CB01F0F1F534F49735366659
:10531200679496959091924022B622A6018401CE7E
:0C53220000AC006C0B850BA50BBE0B0053
:00000001FF
